{
    "contractName": "Crud",
    "abi": [
        {
            "inputs": [
                {
                    "internalType": "string",
                    "name": "name",
                    "type": "string"
                },
                {
                    "internalType": "address",
                    "name": "add",
                    "type": "address"
                },
                {
                    "internalType": "string",
                    "name": "hospital",
                    "type": "string"
                },
                {
                    "internalType": "uint256",
                    "name": "admissionDate",
                    "type": "uint256"
                },
                {
                    "internalType": "uint256",
                    "name": "dischargeDate",
                    "type": "uint256"
                },
                {
                    "internalType": "string",
                    "name": "visitReason",
                    "type": "string"
                }
            ],
            "name": "create",
            "outputs": [],
            "stateMutability": "nonpayable",
            "type": "function"
        },
        {
            "inputs": [],
            "name": "nextId",
            "outputs": [
                {
                    "internalType": "uint256",
                    "name": "",
                    "type": "uint256"
                }
            ],
            "stateMutability": "view",
            "type": "function"
        },
        {
            "inputs": [
                {
                    "internalType": "address",
                    "name": "add",
                    "type": "address"
                }
            ],
            "name": "read",
            "outputs": [
                {
                    "internalType": "string",
                    "name": "_name",
                    "type": "string"
                },
                {
                    "internalType": "string",
                    "name": "_hospital",
                    "type": "string"
                },
                {
                    "internalType": "uint256",
                    "name": "_admissionDate",
                    "type": "uint256"
                },
                {
                    "internalType": "uint256",
                    "name": "_dischargeDate",
                    "type": "uint256"
                },
                {
                    "internalType": "string",
                    "name": "_visitReason",
                    "type": "string"
                }
            ],
            "stateMutability": "view",
            "type": "function"
        },
        {
            "inputs": [
                {
                    "internalType": "address",
                    "name": "",
                    "type": "address"
                }
            ],
            "name": "records",
            "outputs": [
                {
                    "internalType": "uint256",
                    "name": "id",
                    "type": "uint256"
                },
                {
                    "internalType": "string",
                    "name": "name",
                    "type": "string"
                },
                {
                    "internalType": "address",
                    "name": "add",
                    "type": "address"
                },
                {
                    "internalType": "string",
                    "name": "hospital",
                    "type": "string"
                },
                {
                    "internalType": "uint256",
                    "name": "admissionDate",
                    "type": "uint256"
                },
                {
                    "internalType": "uint256",
                    "name": "dischargeDate",
                    "type": "uint256"
                },
                {
                    "internalType": "string",
                    "name": "visitReason",
                    "type": "string"
                }
            ],
            "stateMutability": "view",
            "type": "function"
        },
        {
            "inputs": [
                {
                    "internalType": "address",
                    "name": "add",
                    "type": "address"
                },
                {
                    "internalType": "string",
                    "name": "name",
                    "type": "string"
                },
                {
                    "internalType": "string",
                    "name": "hospital",
                    "type": "string"
                },
                {
                    "internalType": "uint256",
                    "name": "admissionDate",
                    "type": "uint256"
                },
                {
                    "internalType": "uint256",
                    "name": "dischargeDate",
                    "type": "uint256"
                },
                {
                    "internalType": "string",
                    "name": "visitReason",
                    "type": "string"
                }
            ],
            "name": "update",
            "outputs": [],
            "stateMutability": "nonpayable",
            "type": "function"
        },
        {
            "inputs": [
                {
                    "internalType": "uint256",
                    "name": "",
                    "type": "uint256"
                }
            ],
            "name": "users",
            "outputs": [
                {
                    "internalType": "uint256",
                    "name": "id",
                    "type": "uint256"
                },
                {
                    "internalType": "string",
                    "name": "name",
                    "type": "string"
                },
                {
                    "internalType": "address",
                    "name": "add",
                    "type": "address"
                },
                {
                    "internalType": "string",
                    "name": "hospital",
                    "type": "string"
                },
                {
                    "internalType": "uint256",
                    "name": "admissionDate",
                    "type": "uint256"
                },
                {
                    "internalType": "uint256",
                    "name": "dischargeDate",
                    "type": "uint256"
                },
                {
                    "internalType": "string",
                    "name": "visitReason",
                    "type": "string"
                }
            ],
            "stateMutability": "view",
            "type": "function"
        }
    ],
    "bytecode": "6080604052600160025534801561001557600080fd5b50610e15806100256000396000f3fe608060405234801561001057600080fd5b50600436106100615760003560e01c80624e3a0814610066578063365b98b214610232578063469e9067146103b857806361b8ce8c146103de578063a087a87e146103f8578063f975d3d514610570575b600080fd5b610230600480360360c081101561007c57600080fd5b6001600160a01b038235169190810190604081016020820135600160201b8111156100a657600080fd5b8201836020820111156100b857600080fd5b803590602001918460018302840111600160201b831117156100d957600080fd5b91908080601f0160208091040260200160405190810160405280939291908181526020018383808284376000920191909152509295949360208101935035915050600160201b81111561012b57600080fd5b82018360208201111561013d57600080fd5b803590602001918460018302840111600160201b8311171561015e57600080fd5b91908080601f0160208091040260200160405190810160405280939291908181526020018383808284376000920191909152509295843595602086013595919450925060608101915060400135600160201b8111156101bc57600080fd5b8201836020820111156101ce57600080fd5b803590602001918460018302840111600160201b831117156101ef57600080fd5b91908080601f01602080910402602001604051908101604052809392919081815260200183838082843760009201919091525092955061073b945050505050565b005b61024f6004803603602081101561024857600080fd5b50356107db565b6040518088815260200180602001876001600160a01b03168152602001806020018681526020018581526020018060200184810384528a818151815260200191508051906020019080838360005b838110156102b557818101518382015260200161029d565b50505050905090810190601f1680156102e25780820380516001836020036101000a031916815260200191505b5084810383528851815288516020918201918a019080838360005b838110156103155781810151838201526020016102fd565b50505050905090810190601f1680156103425780820380516001836020036101000a031916815260200191505b50848103825285518152855160209182019187019080838360005b8381101561037557818101518382015260200161035d565b50505050905090810190601f1680156103a25780820380516001836020036101000a031916815260200191505b509a505050505050505050505060405180910390f35b61024f600480360360208110156103ce57600080fd5b50356001600160a01b03166109f3565b6103e6610a62565b60408051918252519081900360200190f35b61041e6004803603602081101561040e57600080fd5b50356001600160a01b0316610a68565b60405180806020018060200186815260200185815260200180602001848103845289818151815260200191508051906020019080838360005b8381101561046f578181015183820152602001610457565b50505050905090810190601f16801561049c5780820380516001836020036101000a031916815260200191505b5084810383528851815288516020918201918a019080838360005b838110156104cf5781810151838201526020016104b7565b50505050905090810190601f1680156104fc5780820380516001836020036101000a031916815260200191505b50848103825285518152855160209182019187019080838360005b8381101561052f578181015183820152602001610517565b50505050905090810190601f16801561055c5780820380516001836020036101000a031916815260200191505b509850505050505050505060405180910390f35b610230600480360360c081101561058657600080fd5b810190602081018135600160201b8111156105a057600080fd5b8201836020820111156105b257600080fd5b803590602001918460018302840111600160201b831117156105d357600080fd5b91908080601f01602080910402602001604051908101604052809392919081815260200183838082843760009201919091525092956001600160a01b03853516959094909350604081019250602001359050600160201b81111561063657600080fd5b82018360208201111561064857600080fd5b803590602001918460018302840111600160201b8311171561066957600080fd5b91908080601f0160208091040260200160405190810160405280939291908181526020018383808284376000920191909152509295843595602086013595919450925060608101915060400135600160201b8111156106c757600080fd5b8201836020820111156106d957600080fd5b803590602001918460018302840111600160201b831117156106fa57600080fd5b91908080601f016020809104026020016040519081016040528093929190818152602001838380828437600092019190915250929550610c95945050505050565b6001600160a01b038616600090815260208181526040909120865161076892600190920191880190610d3e565b506001600160a01b038616600090815260208181526040909120855161079692600390920191870190610d3e565b506001600160a01b038616600090815260208181526040909120600481018590556005810184905582516107d292600690920191840190610d3e565b50505050505050565b600181815481106107eb57600080fd5b9060005260206000209060070201600091509050806000015490806001018054600181600116156101000203166002900480601f01602080910402602001604051908101604052809291908181526020018280546001816001161561010002031660029004801561089d5780601f106108725761010080835404028352916020019161089d565b820191906000526020600020905b81548152906001019060200180831161088057829003601f168201915b505050506002838101546003850180546040805160206101006001851615026000190190931695909504601f810183900483028601830190915280855295966001600160a01b039093169592945090919083018282801561093f5780601f106109145761010080835404028352916020019161093f565b820191906000526020600020905b81548152906001019060200180831161092257829003601f168201915b505050505090806004015490806005015490806006018054600181600116156101000203166002900480601f0160208091040260200160405190810160405280929190818152602001828054600181600116156101000203166002900480156109e95780601f106109be576101008083540402835291602001916109e9565b820191906000526020600020905b8154815290600101906020018083116109cc57829003601f168201915b5050505050905087565b600060208181529181526040908190208054600180830180548551600293821615610100026000190190911692909204601f810187900487028301870190955284825291949293909283018282801561089d5780601f106108725761010080835404028352916020019161089d565b60025481565b6060806000806060600080876001600160a01b03166001600160a01b031681526020019081526020016000206001018054600181600116156101000203166002900480601f016020809104026020016040519081016040528092919081815260200182805460018160011615610100020316600290048015610b2b5780601f10610b0057610100808354040283529160200191610b2b565b820191906000526020600020905b815481529060010190602001808311610b0e57829003601f168201915b505050506001600160a01b038816600090815260208181526040918290206003018054835160026001831615610100026000190190921691909104601f81018490048402820184019094528381529499509250830182828015610bcf5780601f10610ba457610100808354040283529160200191610bcf565b820191906000526020600020905b815481529060010190602001808311610bb257829003601f168201915b505050506001600160a01b038816600090815260208181526040918290206004810154600582015460069092018054855160026001831615610100026000190190921691909104601f8101869004860282018601909652858152969a509098509096509250830182828015610c855780601f10610c5a57610100808354040283529160200191610c85565b820191906000526020600020905b815481529060010190602001808311610c6857829003601f168201915b5050505050905091939590929450565b6001600160a01b0385166000908152602081815260409091208751610cc292600190920191890190610d3e565b506001600160a01b0385166000908152602081815260409091208551610cf092600390920191870190610d3e565b506001600160a01b03851660009081526020818152604090912060048101859055600581018490558251610d2c92600690920191840190610d3e565b50506002805460010190555050505050565b828054600181600116156101000203166002900490600052602060002090601f016020900481019282610d745760008555610dba565b82601f10610d8d57805160ff1916838001178555610dba565b82800160010185558215610dba579182015b82811115610dba578251825591602001919060010190610d9f565b50610dc6929150610dca565b5090565b5b80821115610dc65760008155600101610dcb56fea2646970667358221220f5cffcce6501b45447570990b294d6108eaaa1ee9be8409c8f7fb73456a6e25664736f6c63430007040033",
    "sourcePath": "d:/LU/Grad proj/Code/crud/crud/Contracts/PatientContract.sol",
    "compiler": {
        "name": "solc",
        "version": "0.7.4+commit.3f05b770"
    },
    "functionHashes": {
        "create(string,address,string,uint256,uint256,string)": "f975d3d5",
        "nextId()": "61b8ce8c",
        "read(address)": "a087a87e",
        "records(address)": "469e9067",
        "update(address,string,string,uint256,uint256,string)": "004e3a08",
        "users(uint256)": "365b98b2"
    },
    "gasEstimates": {
        "creation": {
            "codeDepositCost": "721000",
            "executionCost": "20759",
            "totalCost": "741759"
        },
        "external": {
            "create(string,address,string,uint256,uint256,string)": "infinite",
            "nextId()": "1042",
            "read(address)": "infinite",
            "records(address)": "infinite",
            "update(address,string,string,uint256,uint256,string)": "infinite",
            "users(uint256)": "infinite"
        }
    }
}